{
  "contractName": "Adoption",
  "abi": [
    {
      "inputs": [],
      "stateMutability": "nonpayable",
      "type": "constructor"
    },
    {
      "anonymous": false,
      "inputs": [
        {
          "indexed": false,
          "internalType": "address",
          "name": "_from",
          "type": "address"
        },
        {
          "indexed": false,
          "internalType": "uint256",
          "name": "_amount",
          "type": "uint256"
        }
      ],
      "name": "Transfer",
      "type": "event"
    },
    {
      "inputs": [
        {
          "internalType": "uint256",
          "name": "",
          "type": "uint256"
        }
      ],
      "name": "adopters",
      "outputs": [
        {
          "internalType": "address",
          "name": "",
          "type": "address"
        }
      ],
      "stateMutability": "view",
      "type": "function",
      "constant": true
    },
    {
      "inputs": [],
      "name": "owner",
      "outputs": [
        {
          "internalType": "address payable",
          "name": "",
          "type": "address"
        }
      ],
      "stateMutability": "view",
      "type": "function",
      "constant": true
    },
    {
      "stateMutability": "payable",
      "type": "receive",
      "payable": true
    },
    {
      "inputs": [
        {
          "internalType": "uint256",
          "name": "_amt",
          "type": "uint256"
        }
      ],
      "name": "withdraw",
      "outputs": [],
      "stateMutability": "nonpayable",
      "type": "function"
    },
    {
      "inputs": [],
      "name": "getBalance",
      "outputs": [
        {
          "internalType": "uint256",
          "name": "",
          "type": "uint256"
        }
      ],
      "stateMutability": "view",
      "type": "function",
      "constant": true
    },
    {
      "inputs": [],
      "name": "transferEther",
      "outputs": [],
      "stateMutability": "payable",
      "type": "function",
      "payable": true
    },
    {
      "inputs": [
        {
          "internalType": "uint256",
          "name": "petId",
          "type": "uint256"
        }
      ],
      "name": "adopt",
      "outputs": [
        {
          "internalType": "uint256",
          "name": "",
          "type": "uint256"
        }
      ],
      "stateMutability": "payable",
      "type": "function",
      "payable": true
    },
    {
      "inputs": [],
      "name": "getAdopters",
      "outputs": [
        {
          "internalType": "address[16]",
          "name": "",
          "type": "address[16]"
        }
      ],
      "stateMutability": "view",
      "type": "function",
      "constant": true
    }
  ],
  "bytecode": "0x608060405234801561001057600080fd5b5033601060006101000a81548173ffffffffffffffffffffffffffffffffffffffff021916908373ffffffffffffffffffffffffffffffffffffffff1602179055506105ee806100616000396000f3fe6080604052600436106100745760003560e01c806343ae80d31161004e57806343ae80d3146101395780638588b2c5146101b45780638da5cb5b146101f6578063c9b25f0f1461024d5761007b565b806312065fe0146100805780632e1a7d4d146100ab5780633de4eb17146100e65761007b565b3661007b57005b600080fd5b34801561008c57600080fd5b50610095610257565b6040518082815260200191505060405180910390f35b3480156100b757600080fd5b506100e4600480360360208110156100ce57600080fd5b810190808035906020019092919050505061025f565b005b3480156100f257600080fd5b506100fb61036c565b6040518082601060200280838360005b8381101561012657808201518184015260208101905061010b565b5050505090500191505060405180910390f35b34801561014557600080fd5b506101726004803603602081101561015c57600080fd5b81019080803590602001909291905050506103ed565b604051808273ffffffffffffffffffffffffffffffffffffffff1673ffffffffffffffffffffffffffffffffffffffff16815260200191505060405180910390f35b6101e0600480360360208110156101ca57600080fd5b8101908080359060200190929190505050610420565b6040518082815260200191505060405180910390f35b34801561020257600080fd5b5061020b610499565b604051808273ffffffffffffffffffffffffffffffffffffffff1673ffffffffffffffffffffffffffffffffffffffff16815260200191505060405180910390f35b6102556104bf565b005b600047905090565b601060009054906101000a900473ffffffffffffffffffffffffffffffffffffffff1673ffffffffffffffffffffffffffffffffffffffff163373ffffffffffffffffffffffffffffffffffffffff1614610322576040517f08c379a000000000000000000000000000000000000000000000000000000000815260040180806020018281038252601f8152602001807f4f6e6c79206f776e65722063616e2063616c6c2074686973206d6574686f640081525060200191505060405180910390fd5b3373ffffffffffffffffffffffffffffffffffffffff166108fc829081150290604051600060405180830381858888f19350505050158015610368573d6000803e3d6000fd5b5050565b610374610595565b60006010806020026040519081016040528092919082601080156103e3576020028201915b8160009054906101000a900473ffffffffffffffffffffffffffffffffffffffff1673ffffffffffffffffffffffffffffffffffffffff1681526020019060010190808311610399575b5050505050905090565b600081601081106103fa57fe5b016000915054906101000a900473ffffffffffffffffffffffffffffffffffffffff1681565b60008082101580156104335750600f8211155b61043c57600080fd5b6104446104bf565b336000836010811061045257fe5b0160006101000a81548173ffffffffffffffffffffffffffffffffffffffff021916908373ffffffffffffffffffffffffffffffffffffffff160217905550819050919050565b601060009054906101000a900473ffffffffffffffffffffffffffffffffffffffff1681565b601060009054906101000a900473ffffffffffffffffffffffffffffffffffffffff1673ffffffffffffffffffffffffffffffffffffffff166108fc349081150290604051600060405180830381858888f19350505050158015610527573d6000803e3d6000fd5b507f69ca02dd4edd7bf0a4abb9ed3b7af3f14778db5d61921c7dc7cd545266326de23334604051808373ffffffffffffffffffffffffffffffffffffffff1673ffffffffffffffffffffffffffffffffffffffff1681526020018281526020019250505060405180910390a1565b60405180610200016040528060109060208202803883398082019150509050509056fea2646970667358221220c740497d35634c0b4b993e9c8328530643128c182a1bf098d93a63d15a95ff0b64736f6c63430006000033",
  "source": "// SPDX-License-Identifier: MIT\r\npragma solidity >=0.4.21 <8.10.0;\r\n\r\ncontract Adoption{\r\n    address[16] public adopters;\r\n    address payable public owner;\r\n\r\n    event Transfer(\r\n        address _from,\r\n        uint256 _amount\r\n    );\r\n\r\n    constructor() public{\r\n        owner=payable(msg.sender);\r\n    }\r\n\r\n    receive() external payable {}\r\n\r\n    function withdraw(uint _amt) external {\r\n        require(msg.sender==owner,\"Only owner can call this method\");\r\n        payable(msg.sender).transfer(_amt);\r\n    }\r\n\r\n    function getBalance() external view returns (uint){\r\n        return address(this).balance;\r\n    }\r\n\r\n    function transferEther() public payable{\r\n        owner.transfer(msg.value);\r\n        emit Transfer(msg.sender, msg.value);\r\n    }\r\n    // address public owner;\r\n    // string public name=\"Sathishkumar\";\r\n\r\n    // constructor() public{\r\n    //     owner=msg.sender;\r\n    // }\r\n\r\n    // modifier onlyOwner() {\r\n    //     require(msg.sender==owner);\r\n    //     _;\r\n    // }\r\n\r\n    // function transferOwner(address newOwner,string memory _name) public onlyOwner returns (address){\r\n    //     name=_name;\r\n    //     owner=newOwner;\r\n    //     return owner;\r\n    // }\r\n\r\n    function adopt(uint petId) public payable returns (uint){\r\n        require(petId>=0 && petId<=15);\r\n        transferEther();\r\n        adopters[petId]=msg.sender;\r\n        return petId;\r\n    }\r\n\r\n    function getAdopters() public view returns (address[16] memory){\r\n        return adopters;\r\n    }\r\n}",
  "sourcePath": "E:\\Blockchain\\pet-shop-reactApp\\contracts\\Adoption.sol",
  "compiler": {
    "name": "solc",
    "version": "0.6.0+commit.26b70077.Emscripten.clang"
  },
  "schemaVersion": "3.4.4",
  "updatedAt": "2022-04-20T04:35:45.301Z",
  "networkType": "ethereum",
  "devdoc": {
    "methods": {}
  },
  "userdoc": {
    "methods": {}
  }
}